{
  "contractName": "Market",
  "abi": [
    {
      "inputs": [],
      "stateMutability": "nonpayable",
      "type": "constructor"
    },
    {
      "anonymous": false,
      "inputs": [
        {
          "indexed": true,
          "internalType": "address",
          "name": "_owner",
          "type": "address"
        },
        {
          "indexed": true,
          "internalType": "address",
          "name": "_operator",
          "type": "address"
        },
        {
          "indexed": false,
          "internalType": "bool",
          "name": "_approved",
          "type": "bool"
        }
      ],
      "name": "ApprovalForAll",
      "type": "event"
    },
    {
      "anonymous": false,
      "inputs": [
        {
          "indexed": true,
          "internalType": "address",
          "name": "_operator",
          "type": "address"
        },
        {
          "indexed": true,
          "internalType": "address",
          "name": "_from",
          "type": "address"
        },
        {
          "indexed": true,
          "internalType": "address",
          "name": "_to",
          "type": "address"
        },
        {
          "indexed": false,
          "internalType": "uint256[]",
          "name": "_ids",
          "type": "uint256[]"
        },
        {
          "indexed": false,
          "internalType": "uint256[]",
          "name": "_values",
          "type": "uint256[]"
        }
      ],
      "name": "TransferBatch",
      "type": "event"
    },
    {
      "anonymous": false,
      "inputs": [
        {
          "indexed": true,
          "internalType": "address",
          "name": "_operator",
          "type": "address"
        },
        {
          "indexed": true,
          "internalType": "address",
          "name": "_from",
          "type": "address"
        },
        {
          "indexed": true,
          "internalType": "address",
          "name": "_to",
          "type": "address"
        },
        {
          "indexed": false,
          "internalType": "uint256",
          "name": "_id",
          "type": "uint256"
        },
        {
          "indexed": false,
          "internalType": "uint256",
          "name": "_value",
          "type": "uint256"
        }
      ],
      "name": "TransferSingle",
      "type": "event"
    },
    {
      "anonymous": false,
      "inputs": [
        {
          "indexed": false,
          "internalType": "string",
          "name": "_value",
          "type": "string"
        },
        {
          "indexed": true,
          "internalType": "uint256",
          "name": "_id",
          "type": "uint256"
        }
      ],
      "name": "URI",
      "type": "event"
    },
    {
      "stateMutability": "payable",
      "type": "fallback"
    },
    {
      "inputs": [],
      "name": "toggleEmergency",
      "outputs": [
        {
          "internalType": "bool",
          "name": "",
          "type": "bool"
        }
      ],
      "stateMutability": "nonpayable",
      "type": "function"
    },
    {
      "inputs": [
        {
          "internalType": "address",
          "name": "_operator",
          "type": "address"
        },
        {
          "internalType": "address",
          "name": "_from",
          "type": "address"
        },
        {
          "internalType": "uint256",
          "name": "_id",
          "type": "uint256"
        },
        {
          "internalType": "uint256",
          "name": "_value",
          "type": "uint256"
        },
        {
          "internalType": "bytes",
          "name": "_data",
          "type": "bytes"
        }
      ],
      "name": "onERC1155Received",
      "outputs": [
        {
          "internalType": "bytes4",
          "name": "",
          "type": "bytes4"
        }
      ],
      "stateMutability": "view",
      "type": "function"
    },
    {
      "inputs": [
        {
          "internalType": "address",
          "name": "_operator",
          "type": "address"
        },
        {
          "internalType": "address",
          "name": "_from",
          "type": "address"
        },
        {
          "internalType": "uint256[]",
          "name": "_ids",
          "type": "uint256[]"
        },
        {
          "internalType": "uint256[]",
          "name": "_values",
          "type": "uint256[]"
        },
        {
          "internalType": "bytes",
          "name": "_data",
          "type": "bytes"
        }
      ],
      "name": "onERC1155BatchReceived",
      "outputs": [
        {
          "internalType": "bytes4",
          "name": "",
          "type": "bytes4"
        }
      ],
      "stateMutability": "view",
      "type": "function"
    },
    {
      "inputs": [
        {
          "internalType": "uint256",
          "name": "id",
          "type": "uint256"
        },
        {
          "internalType": "uint256",
          "name": "amount",
          "type": "uint256"
        }
      ],
      "name": "mint",
      "outputs": [],
      "stateMutability": "nonpayable",
      "type": "function"
    },
    {
      "inputs": [
        {
          "internalType": "uint256",
          "name": "id",
          "type": "uint256"
        }
      ],
      "name": "burn",
      "outputs": [],
      "stateMutability": "nonpayable",
      "type": "function"
    },
    {
      "inputs": [],
      "name": "depositEther",
      "outputs": [],
      "stateMutability": "payable",
      "type": "function"
    },
    {
      "inputs": [
        {
          "internalType": "address",
          "name": "owner",
          "type": "address"
        }
      ],
      "name": "etherBalanceOf",
      "outputs": [
        {
          "internalType": "uint256",
          "name": "",
          "type": "uint256"
        }
      ],
      "stateMutability": "view",
      "type": "function"
    },
    {
      "inputs": [
        {
          "internalType": "address",
          "name": "_from",
          "type": "address"
        },
        {
          "internalType": "address",
          "name": "_to",
          "type": "address"
        },
        {
          "internalType": "uint256",
          "name": "_id",
          "type": "uint256"
        },
        {
          "internalType": "uint256",
          "name": "_value",
          "type": "uint256"
        },
        {
          "internalType": "bytes",
          "name": "_data",
          "type": "bytes"
        }
      ],
      "name": "safeTransferFrom",
      "outputs": [],
      "stateMutability": "nonpayable",
      "type": "function"
    },
    {
      "inputs": [
        {
          "internalType": "address",
          "name": "_from",
          "type": "address"
        },
        {
          "internalType": "address",
          "name": "_to",
          "type": "address"
        },
        {
          "internalType": "uint256[]",
          "name": "_ids",
          "type": "uint256[]"
        },
        {
          "internalType": "uint256[]",
          "name": "_values",
          "type": "uint256[]"
        },
        {
          "internalType": "bytes",
          "name": "_data",
          "type": "bytes"
        }
      ],
      "name": "safeBatchTransferFrom",
      "outputs": [],
      "stateMutability": "nonpayable",
      "type": "function"
    },
    {
      "inputs": [
        {
          "internalType": "address",
          "name": "_owner",
          "type": "address"
        },
        {
          "internalType": "uint256",
          "name": "_id",
          "type": "uint256"
        }
      ],
      "name": "balanceOf",
      "outputs": [
        {
          "internalType": "uint256",
          "name": "",
          "type": "uint256"
        }
      ],
      "stateMutability": "view",
      "type": "function"
    },
    {
      "inputs": [
        {
          "internalType": "address[]",
          "name": "_owners",
          "type": "address[]"
        },
        {
          "internalType": "uint256[]",
          "name": "_ids",
          "type": "uint256[]"
        }
      ],
      "name": "balanceOfBatch",
      "outputs": [
        {
          "internalType": "uint256[]",
          "name": "",
          "type": "uint256[]"
        }
      ],
      "stateMutability": "view",
      "type": "function"
    },
    {
      "inputs": [
        {
          "internalType": "address",
          "name": "_operator",
          "type": "address"
        },
        {
          "internalType": "bool",
          "name": "_approved",
          "type": "bool"
        }
      ],
      "name": "setApprovalForAll",
      "outputs": [],
      "stateMutability": "nonpayable",
      "type": "function"
    },
    {
      "inputs": [
        {
          "internalType": "address",
          "name": "_owner",
          "type": "address"
        },
        {
          "internalType": "address",
          "name": "_operator",
          "type": "address"
        }
      ],
      "name": "isApprovedForAll",
      "outputs": [
        {
          "internalType": "bool",
          "name": "",
          "type": "bool"
        }
      ],
      "stateMutability": "view",
      "type": "function"
    }
  ],
  "bytecode": "0x60806040526040518080611f096038913960380190506040518091039020600360006101000a81548163ffffffff021916908360e01c02179055506040518080611ec86041913960410190506040518091039020600360046101000a81548163ffffffff021916908360e01c021790555034801561007c57600080fd5b5033600360086101000a81548173ffffffffffffffffffffffffffffffffffffffff021916908373ffffffffffffffffffffffffffffffffffffffff160217905550611dfb806100cd6000396000f3fe6080604052600436106100c55760003560e01c80634e1273f41161007f578063bc197c8111610059578063bc197c81146105c9578063e985e9c51461078b578063f23a6e6114610814578063f242432a14610940576100c6565b80634e1273f41461043257806398ea5fca14610562578063a22cb4651461056c576100c6565b8062fdd58e1461013f578063179fc99f146101ae5780631b2ef1ca146102135780632d1d2744146102585780632eb2c2d61461028757806342966c68146103f7576100c6565b5b6003601c9054906101000a900460ff16156100e057600080fd5b600080369050146100f057600080fd5b34600160003373ffffffffffffffffffffffffffffffffffffffff1673ffffffffffffffffffffffffffffffffffffffff16815260200190815260200160002060008282540192505081905550005b34801561014b57600080fd5b506101986004803603604081101561016257600080fd5b81019080803573ffffffffffffffffffffffffffffffffffffffff16906020019092919080359060200190929190505050610a1a565b6040518082815260200191505060405180910390f35b3480156101ba57600080fd5b506101fd600480360360208110156101d157600080fd5b81019080803573ffffffffffffffffffffffffffffffffffffffff169060200190929190505050610aad565b6040518082815260200191505060405180910390f35b34801561021f57600080fd5b506102566004803603604081101561023657600080fd5b810190808035906020019092919080359060200190929190505050610b10565b005b34801561026457600080fd5b5061026d610b68565b604051808215151515815260200191505060405180910390f35b34801561029357600080fd5b506103f5600480360360a08110156102aa57600080fd5b81019080803573ffffffffffffffffffffffffffffffffffffffff169060200190929190803573ffffffffffffffffffffffffffffffffffffffff1690602001909291908035906020019064010000000081111561030757600080fd5b82018360208201111561031957600080fd5b8035906020019184602083028401116401000000008311171561033b57600080fd5b90919293919293908035906020019064010000000081111561035c57600080fd5b82018360208201111561036e57600080fd5b8035906020019184602083028401116401000000008311171561039057600080fd5b9091929391929390803590602001906401000000008111156103b157600080fd5b8201836020820111156103c357600080fd5b803590602001918460018302840111640100000000831117156103e557600080fd5b9091929391929390505050610bf5565b005b34801561040357600080fd5b506104306004803603602081101561041a57600080fd5b81019080803590602001909291905050506110c5565b005b34801561043e57600080fd5b5061050b6004803603604081101561045557600080fd5b810190808035906020019064010000000081111561047257600080fd5b82018360208201111561048457600080fd5b803590602001918460208302840111640100000000831117156104a657600080fd5b9091929391929390803590602001906401000000008111156104c757600080fd5b8201836020820111156104d957600080fd5b803590602001918460208302840111640100000000831117156104fb57600080fd5b909192939192939050505061111d565b6040518080602001828103825283818151815260200191508051906020019060200280838360005b8381101561054e578082015181840152602081019050610533565b505050509050019250505060405180910390f35b61056a611295565b005b34801561057857600080fd5b506105c76004803603604081101561058f57600080fd5b81019080803573ffffffffffffffffffffffffffffffffffffffff1690602001909291908035151590602001909291905050506112fe565b005b3480156105d557600080fd5b50610737600480360360a08110156105ec57600080fd5b81019080803573ffffffffffffffffffffffffffffffffffffffff169060200190929190803573ffffffffffffffffffffffffffffffffffffffff1690602001909291908035906020019064010000000081111561064957600080fd5b82018360208201111561065b57600080fd5b8035906020019184602083028401116401000000008311171561067d57600080fd5b90919293919293908035906020019064010000000081111561069e57600080fd5b8201836020820111156106b057600080fd5b803590602001918460208302840111640100000000831117156106d257600080fd5b9091929391929390803590602001906401000000008111156106f357600080fd5b82018360208201111561070557600080fd5b8035906020019184600183028401116401000000008311171561072757600080fd5b9091929391929390505050611472565b60405180827bffffffffffffffffffffffffffffffffffffffffffffffffffffffff19167bffffffffffffffffffffffffffffffffffffffffffffffffffffffff1916815260200191505060405180910390f35b34801561079757600080fd5b506107fa600480360360408110156107ae57600080fd5b81019080803573ffffffffffffffffffffffffffffffffffffffff169060200190929190803573ffffffffffffffffffffffffffffffffffffffff16906020019092919050505061149b565b604051808215151515815260200191505060405180910390f35b34801561082057600080fd5b506108ec600480360360a081101561083757600080fd5b81019080803573ffffffffffffffffffffffffffffffffffffffff169060200190929190803573ffffffffffffffffffffffffffffffffffffffff1690602001909291908035906020019092919080359060200190929190803590602001906401000000008111156108a857600080fd5b8201836020820111156108ba57600080fd5b803590602001918460018302840111640100000000831117156108dc57600080fd5b909192939192939050505061152f565b60405180827bffffffffffffffffffffffffffffffffffffffffffffffffffffffff19167bffffffffffffffffffffffffffffffffffffffffffffffffffffffff1916815260200191505060405180910390f35b34801561094c57600080fd5b50610a18600480360360a081101561096357600080fd5b81019080803573ffffffffffffffffffffffffffffffffffffffff169060200190929190803573ffffffffffffffffffffffffffffffffffffffff1690602001909291908035906020019092919080359060200190929190803590602001906401000000008111156109d457600080fd5b8201836020820111156109e657600080fd5b80359060200191846001830284011164010000000083111715610a0857600080fd5b9091929391929390505050611556565b005b60008073ffffffffffffffffffffffffffffffffffffffff168373ffffffffffffffffffffffffffffffffffffffff161415610a5557600080fd5b6000808473ffffffffffffffffffffffffffffffffffffffff1673ffffffffffffffffffffffffffffffffffffffff168152602001908152602001600020600083815260200190815260200160002054905092915050565b60006003601c9054906101000a900460ff1615610ac957600080fd5b600160008373ffffffffffffffffffffffffffffffffffffffff1673ffffffffffffffffffffffffffffffffffffffff168152602001908152602001600020549050919050565b806000803373ffffffffffffffffffffffffffffffffffffffff1673ffffffffffffffffffffffffffffffffffffffff1681526020019081526020016000206000848152602001908152602001600020819055505050565b6000600360089054906101000a900473ffffffffffffffffffffffffffffffffffffffff1673ffffffffffffffffffffffffffffffffffffffff163373ffffffffffffffffffffffffffffffffffffffff1614610bc457600080fd5b6003601c9054906101000a900460ff16156003601c6101000a81548160ff0219169083151502179055506001905090565b6003601c9054906101000a900460ff1615610c0f57600080fd5b600073ffffffffffffffffffffffffffffffffffffffff168773ffffffffffffffffffffffffffffffffffffffff1614158015610c795750600073ffffffffffffffffffffffffffffffffffffffff168873ffffffffffffffffffffffffffffffffffffffff1614155b610c8257600080fd5b838390508686905014610c9457600080fd5b600260008973ffffffffffffffffffffffffffffffffffffffff1673ffffffffffffffffffffffffffffffffffffffff16815260200190815260200160002060003373ffffffffffffffffffffffffffffffffffffffff1673ffffffffffffffffffffffffffffffffffffffff16815260200190815260200160002060009054906101000a900460ff1680610d5457503373ffffffffffffffffffffffffffffffffffffffff168873ffffffffffffffffffffffffffffffffffffffff16145b610d5d57600080fd5b60008090505b86869050811015610efb57848482818110610d7a57fe5b905060200201356000808b73ffffffffffffffffffffffffffffffffffffffff1673ffffffffffffffffffffffffffffffffffffffff1681526020019081526020016000206000898985818110610dcd57fe5b905060200201358152602001908152602001600020541015610dee57600080fd5b848482818110610dfa57fe5b905060200201356000808b73ffffffffffffffffffffffffffffffffffffffff1673ffffffffffffffffffffffffffffffffffffffff1681526020019081526020016000206000898985818110610e4d57fe5b90506020020135815260200190815260200160002060008282540392505081905550848482818110610e7b57fe5b905060200201356000808a73ffffffffffffffffffffffffffffffffffffffff1673ffffffffffffffffffffffffffffffffffffffff1681526020019081526020016000206000898985818110610ece57fe5b90506020020135815260200190815260200160002060008282540192505081905550806001019050610d63565b508673ffffffffffffffffffffffffffffffffffffffff168873ffffffffffffffffffffffffffffffffffffffff163373ffffffffffffffffffffffffffffffffffffffff167f4a39dc06d4c0dbc64b70af90fd698a233a518aa5d07e595d983b8c0526c8f7fb898989896040518080602001806020018381038352878782818152602001925060200280828437600081840152601f19601f8201169050808301925050508381038252858582818152602001925060200280828437600081840152601f19601f820116905080830192505050965050505050505060405180910390a46110b2338989898980806020026020016040519081016040528093929190818152602001838360200280828437600081840152601f19601f82011690508083019250505050505050888880806020026020016040519081016040528093929190818152602001838360200280828437600081840152601f19601f8201169050808301925050505050505087878080601f016020809104026020016040519081016040528093929190818152602001838380828437600081840152601f19601f820116905080830192505050505050506118f1565b6110bb57600080fd5b5050505050505050565b60008060003373ffffffffffffffffffffffffffffffffffffffff1673ffffffffffffffffffffffffffffffffffffffff16815260200190815260200160002060008381526020019081526020016000208190555050565b606082829050858590501461113157600080fd5b6060858590506040519080825280602002602001820160405280156111655781602001602082028038833980820191505090505b50905060008090505b8686905081101561128857600073ffffffffffffffffffffffffffffffffffffffff1687878381811061119d57fe5b9050602002013573ffffffffffffffffffffffffffffffffffffffff1673ffffffffffffffffffffffffffffffffffffffff1614156111db57600080fd5b6000808888848181106111ea57fe5b9050602002013573ffffffffffffffffffffffffffffffffffffffff1673ffffffffffffffffffffffffffffffffffffffff1673ffffffffffffffffffffffffffffffffffffffff168152602001908152602001600020600086868481811061124f57fe5b9050602002013581526020019081526020016000205482828151811061127157fe5b60200260200101818152505080600101905061116e565b5080915050949350505050565b6003601c9054906101000a900460ff16156112af57600080fd5b34600160003373ffffffffffffffffffffffffffffffffffffffff1673ffffffffffffffffffffffffffffffffffffffff16815260200190815260200160002060008282540192505081905550565b600073ffffffffffffffffffffffffffffffffffffffff168273ffffffffffffffffffffffffffffffffffffffff16141561133857600080fd5b8173ffffffffffffffffffffffffffffffffffffffff163373ffffffffffffffffffffffffffffffffffffffff16141561137157600080fd5b80600260003373ffffffffffffffffffffffffffffffffffffffff1673ffffffffffffffffffffffffffffffffffffffff16815260200190815260200160002060008473ffffffffffffffffffffffffffffffffffffffff1673ffffffffffffffffffffffffffffffffffffffff16815260200190815260200160002060006101000a81548160ff0219169083151502179055508173ffffffffffffffffffffffffffffffffffffffff163373ffffffffffffffffffffffffffffffffffffffff167f17307eab39ab6107e8899845ad3d59bd9653f200f220920489ca2b5937696c3183604051808215151515815260200191505060405180910390a35050565b60006040518080611d4d6041913960410190506040518091039020905098975050505050505050565b6000600260008473ffffffffffffffffffffffffffffffffffffffff1673ffffffffffffffffffffffffffffffffffffffff16815260200190815260200160002060008373ffffffffffffffffffffffffffffffffffffffff1673ffffffffffffffffffffffffffffffffffffffff16815260200190815260200160002060009054906101000a900460ff16905092915050565b60006040518080611d8e603891396038019050604051809103902090509695505050505050565b6003601c9054906101000a900460ff161561157057600080fd5b600073ffffffffffffffffffffffffffffffffffffffff168573ffffffffffffffffffffffffffffffffffffffff16141580156115da5750600073ffffffffffffffffffffffffffffffffffffffff168673ffffffffffffffffffffffffffffffffffffffff1614155b6115e357600080fd5b826000808873ffffffffffffffffffffffffffffffffffffffff1673ffffffffffffffffffffffffffffffffffffffff168152602001908152602001600020600086815260200190815260200160002054101561163f57600080fd5b600260008773ffffffffffffffffffffffffffffffffffffffff1673ffffffffffffffffffffffffffffffffffffffff16815260200190815260200160002060003373ffffffffffffffffffffffffffffffffffffffff1673ffffffffffffffffffffffffffffffffffffffff16815260200190815260200160002060009054906101000a900460ff16806116ff57503373ffffffffffffffffffffffffffffffffffffffff168673ffffffffffffffffffffffffffffffffffffffff16145b61170857600080fd5b826000808873ffffffffffffffffffffffffffffffffffffffff1673ffffffffffffffffffffffffffffffffffffffff168152602001908152602001600020600086815260200190815260200160002054036000808873ffffffffffffffffffffffffffffffffffffffff1673ffffffffffffffffffffffffffffffffffffffff168152602001908152602001600020600086815260200190815260200160002081905550826000808773ffffffffffffffffffffffffffffffffffffffff1673ffffffffffffffffffffffffffffffffffffffff1681526020019081526020016000206000868152602001908152602001600020600082825401925050819055508473ffffffffffffffffffffffffffffffffffffffff168673ffffffffffffffffffffffffffffffffffffffff163373ffffffffffffffffffffffffffffffffffffffff167fc3d58168c5ae7397731d063d5bbf3d657854427343f4c083240f7aacaa2d0f628787604051808381526020018281526020019250505060405180910390a46118e0338787878787878080601f016020809104026020016040519081016040528093929190818152602001838380828437600081840152601f19601f82011690508083019250505050505050611b56565b6118e957600080fd5b505050505050565b60006118fc85611d39565b6119095760019050611b4c565b60008573ffffffffffffffffffffffffffffffffffffffff1663bc197c8189898888886040518663ffffffff1660e01b8152600401808673ffffffffffffffffffffffffffffffffffffffff1673ffffffffffffffffffffffffffffffffffffffff1681526020018573ffffffffffffffffffffffffffffffffffffffff1673ffffffffffffffffffffffffffffffffffffffff168152602001806020018060200180602001848103845287818151815260200191508051906020019060200280838360005b838110156119ea5780820151818401526020810190506119cf565b50505050905001848103835286818151815260200191508051906020019060200280838360005b83811015611a2c578082015181840152602081019050611a11565b50505050905001848103825285818151815260200191508051906020019080838360005b83811015611a6b578082015181840152602081019050611a50565b50505050905090810190601f168015611a985780820380516001836020036101000a031916815260200191505b509850505050505050505060206040518083038186803b158015611abb57600080fd5b505afa158015611acf573d6000803e3d6000fd5b505050506040513d6020811015611ae557600080fd5b81019080805190602001909291905050509050600360049054906101000a900460e01b7bffffffffffffffffffffffffffffffffffffffffffffffffffffffff1916817bffffffffffffffffffffffffffffffffffffffffffffffffffffffff1916149150505b9695505050505050565b6000611b6185611d39565b611b6e5760019050611d2f565b60008573ffffffffffffffffffffffffffffffffffffffff1663f23a6e6189898888886040518663ffffffff1660e01b8152600401808673ffffffffffffffffffffffffffffffffffffffff1673ffffffffffffffffffffffffffffffffffffffff1681526020018573ffffffffffffffffffffffffffffffffffffffff1673ffffffffffffffffffffffffffffffffffffffff16815260200184815260200183815260200180602001828103825283818151815260200191508051906020019080838360005b83811015611c50578082015181840152602081019050611c35565b50505050905090810190601f168015611c7d5780820380516001836020036101000a031916815260200191505b50965050505050505060206040518083038186803b158015611c9e57600080fd5b505afa158015611cb2573d6000803e3d6000fd5b505050506040513d6020811015611cc857600080fd5b81019080805190602001909291905050509050600360009054906101000a900460e01b7bffffffffffffffffffffffffffffffffffffffffffffffffffffffff1916817bffffffffffffffffffffffffffffffffffffffffffffffffffffffff1916149150505b9695505050505050565b600080823b90506000811191505091905056fe6f6e455243313135354261746368526563656976656428616464726573732c616464726573732c75696e743235365b5d2c75696e743235365b5d2c6279746573296f6e45524331313535526563656976656428616464726573732c616464726573732c75696e743235362c75696e743235362c627974657329a2646970667358221220fdfe01c58344a5a279b9700b44bafd894a6751cccb777a8ee6deb2ef7e75f80664736f6c634300060000336f6e455243313135354261746368526563656976656428616464726573732c616464726573732c75696e743235365b5d2c75696e743235365b5d2c6279746573296f6e45524331313535526563656976656428616464726573732c616464726573732c75696e743235362c75696e743235362c627974657329",
  "source": "pragma solidity ^0.6.0;\r\n\r\nimport './interfaces/IERC1155.sol';\r\nimport './interfaces/IERC1155TokenReceiver.sol';\r\n\r\n\r\ncontract Market is IERC1155, IERC1155TokenReceiver{\r\n    event TransferSingle(address indexed _operator, address indexed _from, address indexed _to, uint256 _id, uint256 _value);\r\n    event TransferBatch(address indexed _operator, address indexed _from, address indexed _to, uint256[] _ids, uint256[] _values);\r\n    event ApprovalForAll(address indexed _owner, address indexed _operator, bool _approved);\r\n    event URI(string _value, uint256 indexed _id);\r\n\r\n    mapping (address => mapping(uint256 => uint256)) private _balance;\r\n    mapping (address => uint256) private _etherBalance;\r\n    mapping (address => mapping (address => bool)) private _approv;\r\n\r\n    bytes4 private _ERC1155Received = bytes4(keccak256(\"onERC1155Received(address,address,uint256,uint256,bytes)\"));\r\n    bytes4 private _ERC1155BatchReceived = bytes4(keccak256(\"onERC1155BatchReceived(address,address,uint256[],uint256[],bytes)\"));\r\n\r\n    address private _admin;\r\n    bool private _emergency;\r\n\r\n    modifier onlyAdmin{\r\n        require(msg.sender == _admin);\r\n        _;\r\n    }\r\n\r\n    modifier onlyInEmergency{\r\n        require(_emergency);\r\n        _;\r\n    } \r\n\r\n    modifier stopInEmergency{\r\n        require(!_emergency);\r\n        _;\r\n    }\r\n\r\n    constructor() public {   \r\n        _admin = msg.sender;     \r\n    }\r\n\r\n    function toggleEmergency() public onlyAdmin returns (bool){\r\n        _emergency = !_emergency;\r\n        return true;\r\n    }\r\n\r\n    function onERC1155Received(\r\n        address _operator, \r\n        address _from, \r\n        uint256 _id, \r\n        uint256 _value, \r\n        bytes calldata _data\r\n    ) external override view returns(bytes4){\r\n        return bytes4(keccak256(\"onERC1155Received(address,address,uint256,uint256,bytes)\"));\r\n    }\r\n\r\n    function onERC1155BatchReceived(\r\n        address _operator, \r\n        address _from, \r\n        uint256[] calldata _ids, \r\n        uint256[] calldata _values, \r\n        bytes calldata _data\r\n    ) external override view returns(bytes4){\r\n        return bytes4(keccak256(\"onERC1155BatchReceived(address,address,uint256[],uint256[],bytes)\"));\r\n    } \r\n\r\n    //test function\r\n    function mint(uint256 id, uint256 amount) external { \r\n        _balance[msg.sender][id] = amount;\r\n    }\r\n\r\n    //test function\r\n    function burn(uint256 id) external { \r\n        _balance[msg.sender][id] = 0;\r\n    }\r\n\r\n\r\n    //if ether are sended to the contract\r\n    fallback() external stopInEmergency payable{\r\n        require(msg.data.length == 0);\r\n        _etherBalance[msg.sender] += msg.value;\r\n    }\r\n\r\n    function depositEther() external stopInEmergency payable{\r\n        _etherBalance[msg.sender] += msg.value;\r\n    }\r\n    \r\n    function etherBalanceOf(address owner) external stopInEmergency view returns(uint256){\r\n        return _etherBalance[owner];\r\n    }\r\n\r\n    function safeTransferFrom(address _from, address _to, uint256 _id, uint256 _value, bytes calldata _data) external stopInEmergency override{\r\n        require(_to != address(0) && _from != address(0));\r\n        require(_balance[_from][_id] >= _value);\r\n        require(_approv[_from][msg.sender] || _from == msg.sender);\r\n        _balance[_from][_id] = _balance[_from][_id] - _value;\r\n        _balance[_to][_id] += _value; \r\n        emit TransferSingle(msg.sender, _from,  _to, _id, _value);\r\n        require(_checkOnERC1155Received(msg.sender, _from, _to, _id, _value, _data));\r\n    }\r\n\r\n    function safeBatchTransferFrom(address _from, address _to, uint256[] calldata _ids, uint256[] calldata _values, bytes calldata _data) external stopInEmergency override{\r\n        require(_to != address(0) && _from != address(0));\r\n        require(_ids.length == _values.length);\r\n        require(_approv[_from][msg.sender] || _from == msg.sender);\r\n        for (uint256 i = 0; i < _ids.length; ++i) {\r\n            require(_balance[_from][_ids[i]] >= _values[i]);\r\n            _balance[_from][_ids[i]] -= _values[i];\r\n            _balance[_to][_ids[i]] += _values[i];\r\n        }\r\n        emit TransferBatch(msg.sender, _from, _to, _ids, _values);\r\n        require(_checkOnERC1155BatchReceived(msg.sender, _from, _to, _ids, _values, _data));\r\n    }\r\n\r\n    function balanceOf(address _owner, uint256 _id) external override view returns (uint256){\r\n        require(_owner != address(0));\r\n        return _balance[_owner][_id];\r\n    }\r\n\r\n    function balanceOfBatch(address[] calldata _owners, uint256[] calldata _ids) external override view returns (uint256[] memory){\r\n        require(_owners.length == _ids.length);\r\n        uint256[] memory _balances = new uint256[](_owners.length);\r\n        for (uint256 i = 0; i < _owners.length; ++i) {\r\n            require(_owners[i] != address(0));\r\n            _balances[i] = (_balance[_owners[i]][_ids[i]]); \r\n        }\r\n        return _balances;\r\n    }\r\n\r\n    function setApprovalForAll(address _operator, bool _approved) external override{\r\n        require(_operator != address(0));\r\n        require(msg.sender != _operator);\r\n\r\n        _approv[msg.sender][_operator] = _approved;\r\n        emit ApprovalForAll(msg.sender, _operator, _approved);\r\n    }\r\n\r\n    function isApprovedForAll(address _owner, address _operator) external override view returns (bool){\r\n        return _approv[_owner][_operator];\r\n    }\r\n\r\n    function _checkOnERC1155Received(\r\n        address _operator, \r\n        address _from, \r\n        address _to, \r\n        uint256 _tokenId, \r\n        uint256 _amount, \r\n        bytes memory _data\r\n    ) internal view returns (bool){\r\n        if (!isContract(_to)) {\r\n            return true;\r\n        }\r\n        bytes4 retval = IERC1155TokenReceiver(_to).onERC1155Received(_operator, _from, _tokenId, _amount,_data);\r\n        return (retval == _ERC1155Received);\r\n    }\r\n\r\n    function _checkOnERC1155BatchReceived(\r\n        address _operator, \r\n        address _from, \r\n        address _to, \r\n        uint256[] memory _Ids, \r\n        uint256[] memory _amounts, \r\n        bytes memory _data\r\n    ) internal view returns (bool){\r\n        if (!isContract(_to)) {\r\n            return true;\r\n        }\r\n        \r\n        bytes4 retval = IERC1155TokenReceiver(_to).onERC1155BatchReceived(_operator, _from, _Ids, _amounts,_data);\r\n        return (retval == _ERC1155BatchReceived);\r\n    }\r\n\r\n    function isContract(address addr) internal view returns (bool) {\r\n        uint size;\r\n        assembly{ size := extcodesize(addr)}\r\n        return size > 0;\r\n    }\r\n}",
  "sourcePath": "C:/Users/esdra/Downloads/decentralized_stock_market_ERC1155/contracts/Market.sol",
  "compiler": {
    "name": "solc",
    "version": "0.6.0+commit.26b70077.Emscripten.clang"
  },
  "schemaVersion": "3.3.4",
  "updatedAt": "2021-05-27T15:41:22.210Z",
  "devdoc": {
    "methods": {}
  },
  "userdoc": {
    "methods": {}
  }
}