{
  "contractName": "Market",
  "abi": [
    {
      "inputs": [],
      "stateMutability": "nonpayable",
      "type": "constructor"
    },
    {
      "anonymous": false,
      "inputs": [
        {
          "indexed": true,
          "internalType": "address",
          "name": "_owner",
          "type": "address"
        },
        {
          "indexed": true,
          "internalType": "address",
          "name": "_operator",
          "type": "address"
        },
        {
          "indexed": false,
          "internalType": "bool",
          "name": "_approved",
          "type": "bool"
        }
      ],
      "name": "ApprovalForAll",
      "type": "event"
    },
    {
      "anonymous": false,
      "inputs": [
        {
          "indexed": false,
          "internalType": "string",
          "name": "name",
          "type": "string"
        },
        {
          "indexed": false,
          "internalType": "string",
          "name": "symbol",
          "type": "string"
        },
        {
          "indexed": false,
          "internalType": "uint256",
          "name": "amount",
          "type": "uint256"
        },
        {
          "indexed": false,
          "internalType": "uint256",
          "name": "tokenId",
          "type": "uint256"
        }
      ],
      "name": "Open",
      "type": "event"
    },
    {
      "anonymous": false,
      "inputs": [
        {
          "indexed": true,
          "internalType": "address",
          "name": "_operator",
          "type": "address"
        },
        {
          "indexed": true,
          "internalType": "address",
          "name": "_from",
          "type": "address"
        },
        {
          "indexed": true,
          "internalType": "address",
          "name": "_to",
          "type": "address"
        },
        {
          "indexed": false,
          "internalType": "uint256[]",
          "name": "_ids",
          "type": "uint256[]"
        },
        {
          "indexed": false,
          "internalType": "uint256[]",
          "name": "_values",
          "type": "uint256[]"
        }
      ],
      "name": "TransferBatch",
      "type": "event"
    },
    {
      "anonymous": false,
      "inputs": [
        {
          "indexed": true,
          "internalType": "address",
          "name": "_operator",
          "type": "address"
        },
        {
          "indexed": true,
          "internalType": "address",
          "name": "_from",
          "type": "address"
        },
        {
          "indexed": true,
          "internalType": "address",
          "name": "_to",
          "type": "address"
        },
        {
          "indexed": false,
          "internalType": "uint256",
          "name": "_id",
          "type": "uint256"
        },
        {
          "indexed": false,
          "internalType": "uint256",
          "name": "_value",
          "type": "uint256"
        }
      ],
      "name": "TransferSingle",
      "type": "event"
    },
    {
      "anonymous": false,
      "inputs": [
        {
          "indexed": false,
          "internalType": "string",
          "name": "_value",
          "type": "string"
        },
        {
          "indexed": true,
          "internalType": "uint256",
          "name": "_id",
          "type": "uint256"
        }
      ],
      "name": "URI",
      "type": "event"
    },
    {
      "inputs": [
        {
          "internalType": "uint256",
          "name": "",
          "type": "uint256"
        }
      ],
      "name": "tokenIds",
      "outputs": [
        {
          "internalType": "uint256",
          "name": "",
          "type": "uint256"
        }
      ],
      "stateMutability": "view",
      "type": "function"
    },
    {
      "inputs": [
        {
          "internalType": "address",
          "name": "_operator",
          "type": "address"
        },
        {
          "internalType": "address",
          "name": "_from",
          "type": "address"
        },
        {
          "internalType": "uint256",
          "name": "_id",
          "type": "uint256"
        },
        {
          "internalType": "uint256",
          "name": "_value",
          "type": "uint256"
        },
        {
          "internalType": "bytes",
          "name": "_data",
          "type": "bytes"
        }
      ],
      "name": "onERC1155Received",
      "outputs": [
        {
          "internalType": "bytes4",
          "name": "",
          "type": "bytes4"
        }
      ],
      "stateMutability": "view",
      "type": "function"
    },
    {
      "inputs": [
        {
          "internalType": "address",
          "name": "_operator",
          "type": "address"
        },
        {
          "internalType": "address",
          "name": "_from",
          "type": "address"
        },
        {
          "internalType": "uint256[]",
          "name": "_ids",
          "type": "uint256[]"
        },
        {
          "internalType": "uint256[]",
          "name": "_values",
          "type": "uint256[]"
        },
        {
          "internalType": "bytes",
          "name": "_data",
          "type": "bytes"
        }
      ],
      "name": "onERC1155BatchReceived",
      "outputs": [
        {
          "internalType": "bytes4",
          "name": "",
          "type": "bytes4"
        }
      ],
      "stateMutability": "view",
      "type": "function"
    },
    {
      "inputs": [
        {
          "internalType": "uint256",
          "name": "_tokenId",
          "type": "uint256"
        }
      ],
      "name": "name",
      "outputs": [
        {
          "internalType": "string",
          "name": "",
          "type": "string"
        }
      ],
      "stateMutability": "view",
      "type": "function"
    },
    {
      "inputs": [
        {
          "internalType": "uint256",
          "name": "_tokenId",
          "type": "uint256"
        }
      ],
      "name": "symbol",
      "outputs": [
        {
          "internalType": "string",
          "name": "",
          "type": "string"
        }
      ],
      "stateMutability": "view",
      "type": "function"
    },
    {
      "inputs": [
        {
          "internalType": "uint256",
          "name": "_tokenId",
          "type": "uint256"
        }
      ],
      "name": "totalSupply",
      "outputs": [
        {
          "internalType": "uint256",
          "name": "",
          "type": "uint256"
        }
      ],
      "stateMutability": "view",
      "type": "function"
    },
    {
      "inputs": [
        {
          "internalType": "address",
          "name": "_from",
          "type": "address"
        },
        {
          "internalType": "address",
          "name": "_to",
          "type": "address"
        },
        {
          "internalType": "uint256",
          "name": "_id",
          "type": "uint256"
        },
        {
          "internalType": "uint256",
          "name": "_value",
          "type": "uint256"
        },
        {
          "internalType": "bytes",
          "name": "_data",
          "type": "bytes"
        }
      ],
      "name": "safeTransferFrom",
      "outputs": [],
      "stateMutability": "nonpayable",
      "type": "function"
    },
    {
      "inputs": [
        {
          "internalType": "address",
          "name": "_from",
          "type": "address"
        },
        {
          "internalType": "address",
          "name": "_to",
          "type": "address"
        },
        {
          "internalType": "uint256[]",
          "name": "_ids",
          "type": "uint256[]"
        },
        {
          "internalType": "uint256[]",
          "name": "_values",
          "type": "uint256[]"
        },
        {
          "internalType": "bytes",
          "name": "_data",
          "type": "bytes"
        }
      ],
      "name": "safeBatchTransferFrom",
      "outputs": [],
      "stateMutability": "nonpayable",
      "type": "function"
    },
    {
      "inputs": [
        {
          "internalType": "address",
          "name": "_owner",
          "type": "address"
        },
        {
          "internalType": "uint256",
          "name": "_id",
          "type": "uint256"
        }
      ],
      "name": "balanceOf",
      "outputs": [
        {
          "internalType": "uint256",
          "name": "",
          "type": "uint256"
        }
      ],
      "stateMutability": "view",
      "type": "function"
    },
    {
      "inputs": [
        {
          "internalType": "address[]",
          "name": "_owners",
          "type": "address[]"
        },
        {
          "internalType": "uint256[]",
          "name": "_ids",
          "type": "uint256[]"
        }
      ],
      "name": "balanceOfBatch",
      "outputs": [
        {
          "internalType": "uint256[]",
          "name": "",
          "type": "uint256[]"
        }
      ],
      "stateMutability": "view",
      "type": "function"
    },
    {
      "inputs": [
        {
          "internalType": "address",
          "name": "_operator",
          "type": "address"
        },
        {
          "internalType": "bool",
          "name": "_approved",
          "type": "bool"
        }
      ],
      "name": "setApprovalForAll",
      "outputs": [],
      "stateMutability": "nonpayable",
      "type": "function"
    },
    {
      "inputs": [
        {
          "internalType": "address",
          "name": "_owner",
          "type": "address"
        },
        {
          "internalType": "address",
          "name": "_operator",
          "type": "address"
        }
      ],
      "name": "isApprovedForAll",
      "outputs": [
        {
          "internalType": "bool",
          "name": "",
          "type": "bool"
        }
      ],
      "stateMutability": "view",
      "type": "function"
    }
  ],
  "bytecode": "0x608060405234801561001057600080fd5b50611c74806100206000396000f3fe608060405234801561001057600080fd5b50600436106100b25760003560e01c8063bc197c8111610071578063bc197c811461053d578063bd85b039146106f2578063d58778d614610734578063e985e9c514610776578063f23a6e61146107f2578063f242432a14610911576100b2565b8062ad800c146100b7578062fdd58e1461015e5780632eb2c2d6146101c05780634e1273f4146103235780634e41a1fb14610446578063a22cb465146104ed575b600080fd5b6100e3600480360360208110156100cd57600080fd5b81019080803590602001909291905050506109de565b6040518080602001828103825283818151815260200191508051906020019080838360005b83811015610123578082015181840152602081019050610108565b50505050905090810190601f1680156101505780820380516001836020036101000a031916815260200191505b509250505060405180910390f35b6101aa6004803603604081101561017457600080fd5b81019080803573ffffffffffffffffffffffffffffffffffffffff16906020019092919080359060200190929190505050610a93565b6040518082815260200191505060405180910390f35b610321600480360360a08110156101d657600080fd5b81019080803573ffffffffffffffffffffffffffffffffffffffff169060200190929190803573ffffffffffffffffffffffffffffffffffffffff1690602001909291908035906020019064010000000081111561023357600080fd5b82018360208201111561024557600080fd5b8035906020019184602083028401116401000000008311171561026757600080fd5b90919293919293908035906020019064010000000081111561028857600080fd5b82018360208201111561029a57600080fd5b803590602001918460208302840111640100000000831117156102bc57600080fd5b9091929391929390803590602001906401000000008111156102dd57600080fd5b8201836020820111156102ef57600080fd5b8035906020019184600183028401116401000000008311171561031157600080fd5b9091929391929390505050610aee565b005b6103ef6004803603604081101561033957600080fd5b810190808035906020019064010000000081111561035657600080fd5b82018360208201111561036857600080fd5b8035906020019184602083028401116401000000008311171561038a57600080fd5b9091929391929390803590602001906401000000008111156103ab57600080fd5b8201836020820111156103bd57600080fd5b803590602001918460208302840111640100000000831117156103df57600080fd5b9091929391929390505050610f82565b6040518080602001828103825283818151815260200191508051906020019060200280838360005b83811015610432578082015181840152602081019050610417565b505050509050019250505060405180910390f35b6104726004803603602081101561045c57600080fd5b8101908080359060200190929190505050611099565b6040518080602001828103825283818151815260200191508051906020019080838360005b838110156104b2578082015181840152602081019050610497565b50505050905090810190601f1680156104df5780820380516001836020036101000a031916815260200191505b509250505060405180910390f35b61053b6004803603604081101561050357600080fd5b81019080803573ffffffffffffffffffffffffffffffffffffffff16906020019092919080351515906020019092919050505061114e565b005b61069e600480360360a081101561055357600080fd5b81019080803573ffffffffffffffffffffffffffffffffffffffff169060200190929190803573ffffffffffffffffffffffffffffffffffffffff169060200190929190803590602001906401000000008111156105b057600080fd5b8201836020820111156105c257600080fd5b803590602001918460208302840111640100000000831117156105e457600080fd5b90919293919293908035906020019064010000000081111561060557600080fd5b82018360208201111561061757600080fd5b8035906020019184602083028401116401000000008311171561063957600080fd5b90919293919293908035906020019064010000000081111561065a57600080fd5b82018360208201111561066c57600080fd5b8035906020019184600183028401116401000000008311171561068e57600080fd5b9091929391929390505050611288565b60405180827bffffffffffffffffffffffffffffffffffffffffffffffffffffffff19167bffffffffffffffffffffffffffffffffffffffffffffffffffffffff1916815260200191505060405180910390f35b61071e6004803603602081101561070857600080fd5b81019080803590602001909291905050506112b1565b6040518082815260200191505060405180910390f35b6107606004803603602081101561074a57600080fd5b81019080803590602001909291905050506112ce565b6040518082815260200191505060405180910390f35b6107d86004803603604081101561078c57600080fd5b81019080803573ffffffffffffffffffffffffffffffffffffffff169060200190929190803573ffffffffffffffffffffffffffffffffffffffff1690602001909291905050506112ef565b604051808215151515815260200191505060405180910390f35b6108bd600480360360a081101561080857600080fd5b81019080803573ffffffffffffffffffffffffffffffffffffffff169060200190929190803573ffffffffffffffffffffffffffffffffffffffff16906020019092919080359060200190929190803590602001909291908035906020019064010000000081111561087957600080fd5b82018360208201111561088b57600080fd5b803590602001918460018302840111640100000000831117156108ad57600080fd5b9091929391929390505050611383565b60405180827bffffffffffffffffffffffffffffffffffffffffffffffffffffffff19167bffffffffffffffffffffffffffffffffffffffffffffffffffffffff1916815260200191505060405180910390f35b6109dc600480360360a081101561092757600080fd5b81019080803573ffffffffffffffffffffffffffffffffffffffff169060200190929190803573ffffffffffffffffffffffffffffffffffffffff16906020019092919080359060200190929190803590602001909291908035906020019064010000000081111561099857600080fd5b8201836020820111156109aa57600080fd5b803590602001918460018302840111640100000000831117156109cc57600080fd5b90919293919293905050506113aa565b005b6060600360008381526020019081526020016000208054600181600116156101000203166002900480601f016020809104026020016040519081016040528092919081815260200182805460018160011615610100020316600290048015610a875780601f10610a5c57610100808354040283529160200191610a87565b820191906000526020600020905b815481529060010190602001808311610a6a57829003601f168201915b50505050509050919050565b6000600760008473ffffffffffffffffffffffffffffffffffffffff1673ffffffffffffffffffffffffffffffffffffffff168152602001908152602001600020600083815260200190815260200160002054905092915050565b600073ffffffffffffffffffffffffffffffffffffffff168773ffffffffffffffffffffffffffffffffffffffff161415610b2857600080fd5b838390508686905014610b3a57600080fd5b3373ffffffffffffffffffffffffffffffffffffffff168873ffffffffffffffffffffffffffffffffffffffff161480610bfa5750600660008973ffffffffffffffffffffffffffffffffffffffff1673ffffffffffffffffffffffffffffffffffffffff16815260200190815260200160002060003373ffffffffffffffffffffffffffffffffffffffff1673ffffffffffffffffffffffffffffffffffffffff16815260200190815260200160002060009054906101000a900460ff165b610c0357600080fd5b60011515610cdb338a8a8a8a80806020026020016040519081016040528093929190818152602001838360200280828437600081840152601f19601f82011690508083019250505050505050898980806020026020016040519081016040528093929190818152602001838360200280828437600081840152601f19601f8201169050808301925050505050505088888080601f016020809104026020016040519081016040528093929190818152602001838380828437600081840152601f19601f820116905080830192505050505050506116fd565b151514610ce757600080fd5b60008090505b86869050811015610e95576000878783818110610d0657fe5b9050602002013590506000868684818110610d1d57fe5b90506020020135905080600760008d73ffffffffffffffffffffffffffffffffffffffff1673ffffffffffffffffffffffffffffffffffffffff1681526020019081526020016000206000848152602001908152602001600020541015610d8357600080fd5b80600760008d73ffffffffffffffffffffffffffffffffffffffff1673ffffffffffffffffffffffffffffffffffffffff16815260200190815260200160002060008481526020019081526020016000205403600760008d73ffffffffffffffffffffffffffffffffffffffff1673ffffffffffffffffffffffffffffffffffffffff16815260200190815260200160002060008481526020019081526020016000208190555080600760008c73ffffffffffffffffffffffffffffffffffffffff1673ffffffffffffffffffffffffffffffffffffffff1681526020019081526020016000206000848152602001908152602001600020600082825401925050819055505050806001019050610ced565b508673ffffffffffffffffffffffffffffffffffffffff168873ffffffffffffffffffffffffffffffffffffffff163373ffffffffffffffffffffffffffffffffffffffff167f4a39dc06d4c0dbc64b70af90fd698a233a518aa5d07e595d983b8c0526c8f7fb898989896040518080602001806020018381038352878782818152602001925060200280828437600081840152601f19601f8201169050808301925050508381038252858582818152602001925060200280828437600081840152601f19601f820116905080830192505050965050505050505060405180910390a45050505050505050565b6060828290508585905014610f9657600080fd5b606085859050604051908082528060200260200182016040528015610fca5781602001602082028038833980820191505090505b50905060008090505b8686905081101561108c5760076000888884818110610fee57fe5b9050602002013573ffffffffffffffffffffffffffffffffffffffff1673ffffffffffffffffffffffffffffffffffffffff1673ffffffffffffffffffffffffffffffffffffffff168152602001908152602001600020600086868481811061105357fe5b9050602002013581526020019081526020016000205482828151811061107557fe5b602002602001018181525050806001019050610fd3565b5080915050949350505050565b6060600460008381526020019081526020016000208054600181600116156101000203166002900480601f0160208091040260200160405190810160405280929190818152602001828054600181600116156101000203166002900480156111425780601f1061111757610100808354040283529160200191611142565b820191906000526020600020905b81548152906001019060200180831161112557829003601f168201915b50505050509050919050565b8173ffffffffffffffffffffffffffffffffffffffff163373ffffffffffffffffffffffffffffffffffffffff16141561118757600080fd5b80600660003373ffffffffffffffffffffffffffffffffffffffff1673ffffffffffffffffffffffffffffffffffffffff16815260200190815260200160002060008473ffffffffffffffffffffffffffffffffffffffff1673ffffffffffffffffffffffffffffffffffffffff16815260200190815260200160002060006101000a81548160ff0219169083151502179055508173ffffffffffffffffffffffffffffffffffffffff163373ffffffffffffffffffffffffffffffffffffffff167f17307eab39ab6107e8899845ad3d59bd9653f200f220920489ca2b5937696c3183604051808215151515815260200191505060405180910390a35050565b60006040518080611bc66041913960410190506040518091039020905098975050505050505050565b600060056000838152602001908152602001600020549050919050565b600081815481106112db57fe5b906000526020600020016000915090505481565b6000600660008473ffffffffffffffffffffffffffffffffffffffff1673ffffffffffffffffffffffffffffffffffffffff16815260200190815260200160002060008373ffffffffffffffffffffffffffffffffffffffff1673ffffffffffffffffffffffffffffffffffffffff16815260200190815260200160002060009054906101000a900460ff16905092915050565b60006040518080611c07603891396038019050604051809103902090509695505050505050565b600073ffffffffffffffffffffffffffffffffffffffff168573ffffffffffffffffffffffffffffffffffffffff1614156113e457600080fd5b82600760008873ffffffffffffffffffffffffffffffffffffffff1673ffffffffffffffffffffffffffffffffffffffff168152602001908152602001600020600086815260200190815260200160002054101561144157600080fd5b3373ffffffffffffffffffffffffffffffffffffffff168673ffffffffffffffffffffffffffffffffffffffff1614806115015750600660008773ffffffffffffffffffffffffffffffffffffffff1673ffffffffffffffffffffffffffffffffffffffff16815260200190815260200160002060003373ffffffffffffffffffffffffffffffffffffffff1673ffffffffffffffffffffffffffffffffffffffff16815260200190815260200160002060009054906101000a900460ff165b61150a57600080fd5b60011515611560338888888888888080601f016020809104026020016040519081016040528093929190818152602001838380828437600081840152601f19601f82011690508083019250505050505050611998565b15151461156c57600080fd5b82600760008873ffffffffffffffffffffffffffffffffffffffff1673ffffffffffffffffffffffffffffffffffffffff16815260200190815260200160002060008681526020019081526020016000205403600760008873ffffffffffffffffffffffffffffffffffffffff1673ffffffffffffffffffffffffffffffffffffffff16815260200190815260200160002060008681526020019081526020016000208190555082600760008773ffffffffffffffffffffffffffffffffffffffff1673ffffffffffffffffffffffffffffffffffffffff1681526020019081526020016000206000868152602001908152602001600020600082825401925050819055508473ffffffffffffffffffffffffffffffffffffffff168673ffffffffffffffffffffffffffffffffffffffff163373ffffffffffffffffffffffffffffffffffffffff167fc3d58168c5ae7397731d063d5bbf3d657854427343f4c083240f7aacaa2d0f628787604051808381526020018281526020019250505060405180910390a4505050505050565b600061170885611bb1565b611715576001905061198e565b6040518080611bc66041913960410190506040518091039020600160046101000a81548163ffffffff021916908360e01c021790555060008573ffffffffffffffffffffffffffffffffffffffff1663bc197c8189898888886040518663ffffffff1660e01b8152600401808673ffffffffffffffffffffffffffffffffffffffff1673ffffffffffffffffffffffffffffffffffffffff1681526020018573ffffffffffffffffffffffffffffffffffffffff1673ffffffffffffffffffffffffffffffffffffffff168152602001806020018060200180602001848103845287818151815260200191508051906020019060200280838360005b8381101561182c578082015181840152602081019050611811565b50505050905001848103835286818151815260200191508051906020019060200280838360005b8381101561186e578082015181840152602081019050611853565b50505050905001848103825285818151815260200191508051906020019080838360005b838110156118ad578082015181840152602081019050611892565b50505050905090810190601f1680156118da5780820380516001836020036101000a031916815260200191505b509850505050505050505060206040518083038186803b1580156118fd57600080fd5b505afa158015611911573d6000803e3d6000fd5b505050506040513d602081101561192757600080fd5b81019080805190602001909291905050509050600160049054906101000a900460e01b7bffffffffffffffffffffffffffffffffffffffffffffffffffffffff1916817bffffffffffffffffffffffffffffffffffffffffffffffffffffffff1916149150505b9695505050505050565b60006119a385611bb1565b6119b05760019050611ba7565b6040518080611c076038913960380190506040518091039020600160006101000a81548163ffffffff021916908360e01c021790555060008573ffffffffffffffffffffffffffffffffffffffff1663f23a6e6189898888886040518663ffffffff1660e01b8152600401808673ffffffffffffffffffffffffffffffffffffffff1673ffffffffffffffffffffffffffffffffffffffff1681526020018573ffffffffffffffffffffffffffffffffffffffff1673ffffffffffffffffffffffffffffffffffffffff16815260200184815260200183815260200180602001828103825283818151815260200191508051906020019080838360005b83811015611ac8578082015181840152602081019050611aad565b50505050905090810190601f168015611af55780820380516001836020036101000a031916815260200191505b50965050505050505060206040518083038186803b158015611b1657600080fd5b505afa158015611b2a573d6000803e3d6000fd5b505050506040513d6020811015611b4057600080fd5b81019080805190602001909291905050509050600160009054906101000a900460e01b7bffffffffffffffffffffffffffffffffffffffffffffffffffffffff1916817bffffffffffffffffffffffffffffffffffffffffffffffffffffffff1916149150505b9695505050505050565b600080823b9050600081141591505091905056fe6f6e455243313135354261746368526563656976656428616464726573732c616464726573732c75696e743235365b5d2c75696e743235365b5d2c6279746573296f6e45524331313535526563656976656428616464726573732c616464726573732c75696e743235362c75696e743235362c627974657329a2646970667358221220b8f2d9cf3ca59b7de4def0d557f8b1fa3b7cd064a4788bc6572a6a23d735572764736f6c63430006000033",
  "source": "pragma solidity ^0.6.0;\r\n\r\nimport './interfaces/ERC1155.sol';\r\nimport './interfaces/ERC1155Receiver.sol';\r\n\r\ncontract Market is ERC1155 , ERC1155TokenReceiver{\r\n\r\n    event Open(string name, string symbol, uint256 amount, uint256 tokenId);\r\n    event TransferSingle(address indexed _operator, address indexed _from, address indexed _to, uint256 _id, uint256 _value);\r\n    event TransferBatch(address indexed _operator, address indexed _from, address indexed _to, uint256[] _ids, uint256[] _values);\r\n    event ApprovalForAll(address indexed _owner, address indexed _operator, bool _approved);\r\n    event URI(string _value, uint256 indexed _id);\r\n\r\n    uint256[] public tokenIds;\r\n    bytes4 private _ERC1155Received;\r\n    bytes4 private _ERC1155BatchReceived;\r\n\r\n    mapping(uint256=>bool) private _tokenExists;\r\n    mapping(uint256 => string) private _tokenName;\r\n    mapping(uint256 => string) private _tokenSymbol;\r\n    mapping(uint256 => uint256) private _tokenSupply;\r\n    mapping(address => mapping(address => bool)) private _isApproved;\r\n    mapping(address => mapping(uint256 => uint256)) private _balance;\r\n\r\n    constructor() public{\r\n\r\n    }\r\n\r\n\r\n\r\n    function _mint(address _emitter, uint256 _tokenId, string memory _name, string memory _symbol,uint256 _amount) internal{\r\n        require(_emitter != address(0), \"emitter address is 0\");\r\n        require(!_tokenExists[_tokenId], \"token already exists\");\r\n        tokenIds.push(_tokenId);\r\n        _tokenName[_tokenId] = _name;\r\n        _tokenSymbol[_tokenId] = _symbol;\r\n        _tokenSupply[_tokenId] = _amount;\r\n        _balance[_emitter][_tokenId] = _amount;\r\n        _tokenExists[_tokenId] = true;\r\n        emit Open(_name, _symbol, _amount, _tokenId);\r\n    }\r\n\r\n    function onERC1155Received(\r\n        address _operator, \r\n        address _from, \r\n        uint256 _id, \r\n        uint256 _value, \r\n        bytes calldata _data\r\n    ) external override view returns(bytes4){\r\n        return bytes4(keccak256(\"onERC1155Received(address,address,uint256,uint256,bytes)\"));\r\n    }\r\n\r\n    function onERC1155BatchReceived(\r\n        address _operator, \r\n        address _from, \r\n        uint256[] calldata _ids, \r\n        uint256[] calldata _values, \r\n        bytes calldata _data\r\n    ) external override view returns(bytes4){\r\n        return bytes4(keccak256(\"onERC1155BatchReceived(address,address,uint256[],uint256[],bytes)\"));\r\n    }    \r\n\r\n    function name(uint256 _tokenId) external view returns(string memory){\r\n        return _tokenName[_tokenId];\r\n    }\r\n\r\n    function symbol(uint256 _tokenId) external view returns(string memory){\r\n        return _tokenSymbol[_tokenId];\r\n    }\r\n\r\n    function totalSupply(uint256 _tokenId) external view returns(uint256){\r\n        return _tokenSupply[_tokenId];\r\n    }\r\n\r\n    function safeTransferFrom(address _from, address _to, uint256 _id, uint256 _value, bytes calldata _data) external override{\r\n        require(_to != address(0));\r\n        require(_balance[_from][_id] >= _value);\r\n        require(_from == msg.sender || _isApproved[_from][msg.sender]);\r\n        require(_checkOnERC1155Received(msg.sender, _from, _to, _id, _value, _data) == true);\r\n\r\n        _balance[_from][_id] = _balance[_from][_id] - _value;\r\n        _balance[_to][_id] += _value;\r\n\r\n        emit TransferSingle(msg.sender, _from, _to, _id, _value); \r\n    }\r\n\r\n    function safeBatchTransferFrom(\r\n        address _from, \r\n        address _to, \r\n        uint256[] calldata _ids, \r\n        uint256[] calldata _values, \r\n        bytes calldata _data\r\n    ) external override{\r\n        require(_to != address(0));\r\n        require(_ids.length == _values.length);\r\n        require(_from == msg.sender || _isApproved[_from][msg.sender]);\r\n        require(_checkOnERC1155BatchReceived(msg.sender, _from, _to, _ids, _values, _data) == true);\r\n\r\n\r\n        for (uint256 i = 0; i < _ids.length; ++i){\r\n            uint256 id = _ids[i];\r\n            uint256 amount = _values[i];\r\n\r\n            require(_balance[_from][id] >= amount); \r\n            _balance[_from][id]= _balance[_from][id] - amount;\r\n            _balance[_to][id] += amount;\r\n        }\r\n\r\n        emit TransferBatch(msg.sender, _from, _to, _ids, _values);\r\n    }\r\n\r\n    function balanceOf(\r\n        address _owner, \r\n        uint256 _id\r\n    ) external override view returns (uint256){\r\n        return _balance[_owner][_id];\r\n    }\r\n\r\n    function balanceOfBatch(\r\n        address[] calldata _owners,\r\n        uint256[] calldata _ids\r\n    ) external override view returns (uint256[] memory){\r\n        require(_owners.length == _ids.length);\r\n\r\n        uint256[] memory batch = new uint256[](_owners.length);\r\n\r\n        for (uint256 i = 0; i < _owners.length; ++i){\r\n            batch[i] = _balance[_owners[i]][_ids[i]];\r\n        }\r\n\r\n        return batch;\r\n    }\r\n\r\n    function setApprovalForAll(\r\n        address _operator, \r\n        bool _approved\r\n    ) external override{\r\n        require(msg.sender != _operator);\r\n\r\n        _isApproved[msg.sender][_operator] = _approved;\r\n        emit ApprovalForAll(msg.sender, _operator, _approved);\r\n    }\r\n\r\n    function isApprovedForAll(\r\n        address _owner,\r\n        address _operator\r\n    ) external override view returns (bool){\r\n        return _isApproved[_owner][_operator];\r\n    }\r\n\r\n    function _checkOnERC1155Received(\r\n        address _operator, \r\n        address _from, \r\n        address _to, \r\n        uint256 _tokenId, \r\n        uint256 _amount, \r\n        bytes memory _data\r\n    ) internal returns (bool){\r\n        if (!isContract(_to)) {\r\n            return true;\r\n        }\r\n        _ERC1155Received = bytes4(keccak256(\"onERC1155Received(address,address,uint256,uint256,bytes)\"));\r\n        bytes4 retval = ERC1155TokenReceiver(_to).onERC1155Received(_operator, _from, _tokenId, _amount,_data);\r\n        return (retval == _ERC1155Received);\r\n    }\r\n\r\n    function _checkOnERC1155BatchReceived(\r\n        address _operator, \r\n        address _from, \r\n        address _to, \r\n        uint256[] memory _Ids, \r\n        uint256[] memory _amounts, \r\n        bytes memory _data\r\n    ) internal returns (bool){\r\n        if (!isContract(_to)) {\r\n            return true;\r\n        }\r\n        _ERC1155BatchReceived = bytes4(keccak256(\"onERC1155BatchReceived(address,address,uint256[],uint256[],bytes)\"));\r\n        bytes4 retval = ERC1155TokenReceiver(_to).onERC1155BatchReceived(_operator, _from, _Ids, _amounts,_data);\r\n        return (retval == _ERC1155BatchReceived);\r\n    }\r\n\r\n    function isContract(address _a) internal returns (bool){\r\n        uint len;\r\n        assembly { len := extcodesize(_a) }\r\n        return len != 0;\r\n    }\r\n\r\n}\r\n\r\n",
  "sourcePath": "C:/Users/esdra/Downloads/decentralized_stock_market_ERC1155/contracts/Market.sol",
  "compiler": {
    "name": "solc",
    "version": "0.6.0+commit.26b70077.Emscripten.clang"
  },
  "schemaVersion": "3.3.4",
  "updatedAt": "2021-05-05T22:46:25.670Z",
  "devdoc": {
    "methods": {}
  },
  "userdoc": {
    "methods": {}
  }
}